{
  "_format": "hh-sol-artifact-1",
  "contractName": "Radiotrace",
  "sourceName": "contracts/radiotraceContract.sol",
  "abi": [
    {
      "inputs": [],
      "stateMutability": "nonpayable",
      "type": "constructor"
    },
    {
      "anonymous": false,
      "inputs": [
        {
          "indexed": false,
          "internalType": "string",
          "name": "id",
          "type": "string"
        },
        {
          "indexed": false,
          "internalType": "uint256",
          "name": "newActivity",
          "type": "uint256"
        },
        {
          "indexed": false,
          "internalType": "uint256",
          "name": "timestamp",
          "type": "uint256"
        }
      ],
      "name": "ActivityUpdated",
      "type": "event"
    },
    {
      "anonymous": false,
      "inputs": [
        {
          "indexed": false,
          "internalType": "string",
          "name": "id",
          "type": "string"
        },
        {
          "indexed": false,
          "internalType": "string",
          "name": "newLocation",
          "type": "string"
        },
        {
          "indexed": false,
          "internalType": "uint256",
          "name": "timestamp",
          "type": "uint256"
        }
      ],
      "name": "LocationUpdated",
      "type": "event"
    },
    {
      "anonymous": false,
      "inputs": [
        {
          "indexed": false,
          "internalType": "address",
          "name": "manufacturer",
          "type": "address"
        }
      ],
      "name": "ManufacturerAdded",
      "type": "event"
    },
    {
      "anonymous": false,
      "inputs": [
        {
          "indexed": false,
          "internalType": "address",
          "name": "observer",
          "type": "address"
        }
      ],
      "name": "ObserverAdded",
      "type": "event"
    },
    {
      "anonymous": false,
      "inputs": [
        {
          "indexed": false,
          "internalType": "string",
          "name": "id",
          "type": "string"
        },
        {
          "indexed": false,
          "internalType": "address",
          "name": "owner",
          "type": "address"
        },
        {
          "indexed": false,
          "internalType": "uint256",
          "name": "timestamp",
          "type": "uint256"
        }
      ],
      "name": "SourceAdded",
      "type": "event"
    },
    {
      "anonymous": false,
      "inputs": [
        {
          "indexed": false,
          "internalType": "string",
          "name": "id",
          "type": "string"
        },
        {
          "indexed": false,
          "internalType": "uint256",
          "name": "activity",
          "type": "uint256"
        },
        {
          "indexed": false,
          "internalType": "string",
          "name": "location",
          "type": "string"
        },
        {
          "indexed": false,
          "internalType": "address",
          "name": "owner",
          "type": "address"
        },
        {
          "indexed": false,
          "internalType": "uint256",
          "name": "timestamp",
          "type": "uint256"
        }
      ],
      "name": "SourceAddedDebug",
      "type": "event"
    },
    {
      "anonymous": false,
      "inputs": [
        {
          "indexed": false,
          "internalType": "string",
          "name": "id",
          "type": "string"
        },
        {
          "indexed": false,
          "internalType": "address",
          "name": "from",
          "type": "address"
        },
        {
          "indexed": false,
          "internalType": "address",
          "name": "to",
          "type": "address"
        },
        {
          "indexed": false,
          "internalType": "uint256",
          "name": "timestamp",
          "type": "uint256"
        }
      ],
      "name": "SourceTransferred",
      "type": "event"
    },
    {
      "anonymous": false,
      "inputs": [
        {
          "indexed": false,
          "internalType": "address",
          "name": "user",
          "type": "address"
        }
      ],
      "name": "UserAdded",
      "type": "event"
    },
    {
      "anonymous": false,
      "inputs": [
        {
          "indexed": false,
          "internalType": "address",
          "name": "user",
          "type": "address"
        }
      ],
      "name": "UserRemoved",
      "type": "event"
    },
    {
      "inputs": [
        {
          "internalType": "address",
          "name": "_manufacturer",
          "type": "address"
        }
      ],
      "name": "addManufacturer",
      "outputs": [],
      "stateMutability": "nonpayable",
      "type": "function"
    },
    {
      "inputs": [
        {
          "internalType": "address",
          "name": "_observer",
          "type": "address"
        }
      ],
      "name": "addObserver",
      "outputs": [],
      "stateMutability": "nonpayable",
      "type": "function"
    },
    {
      "inputs": [
        {
          "internalType": "string",
          "name": "_id",
          "type": "string"
        },
        {
          "internalType": "uint256",
          "name": "_activity",
          "type": "uint256"
        },
        {
          "internalType": "string",
          "name": "_location",
          "type": "string"
        }
      ],
      "name": "addSource",
      "outputs": [],
      "stateMutability": "nonpayable",
      "type": "function"
    },
    {
      "inputs": [
        {
          "internalType": "address",
          "name": "_user",
          "type": "address"
        }
      ],
      "name": "addUser",
      "outputs": [],
      "stateMutability": "nonpayable",
      "type": "function"
    },
    {
      "inputs": [],
      "name": "admin",
      "outputs": [
        {
          "internalType": "address",
          "name": "",
          "type": "address"
        }
      ],
      "stateMutability": "view",
      "type": "function"
    },
    {
      "inputs": [],
      "name": "getAllSourceIds",
      "outputs": [
        {
          "internalType": "string[]",
          "name": "",
          "type": "string[]"
        }
      ],
      "stateMutability": "view",
      "type": "function"
    },
    {
      "inputs": [],
      "name": "getAllSources",
      "outputs": [
        {
          "components": [
            {
              "internalType": "string",
              "name": "id",
              "type": "string"
            },
            {
              "internalType": "uint256",
              "name": "activity",
              "type": "uint256"
            },
            {
              "internalType": "string",
              "name": "location",
              "type": "string"
            },
            {
              "internalType": "address",
              "name": "owner",
              "type": "address"
            },
            {
              "internalType": "uint256",
              "name": "timestamp",
              "type": "uint256"
            }
          ],
          "internalType": "struct Radiotrace.Source[]",
          "name": "",
          "type": "tuple[]"
        }
      ],
      "stateMutability": "view",
      "type": "function"
    },
    {
      "inputs": [],
      "name": "getAllTransactions",
      "outputs": [
        {
          "components": [
            {
              "internalType": "string",
              "name": "sourceId",
              "type": "string"
            },
            {
              "internalType": "address",
              "name": "from",
              "type": "address"
            },
            {
              "internalType": "address",
              "name": "to",
              "type": "address"
            },
            {
              "internalType": "uint256",
              "name": "timestamp",
              "type": "uint256"
            },
            {
              "internalType": "string",
              "name": "action",
              "type": "string"
            }
          ],
          "internalType": "struct Radiotrace.Transaction[]",
          "name": "",
          "type": "tuple[]"
        }
      ],
      "stateMutability": "view",
      "type": "function"
    },
    {
      "inputs": [
        {
          "internalType": "string",
          "name": "_id",
          "type": "string"
        }
      ],
      "name": "getSourceDetails",
      "outputs": [
        {
          "components": [
            {
              "internalType": "string",
              "name": "id",
              "type": "string"
            },
            {
              "internalType": "uint256",
              "name": "activity",
              "type": "uint256"
            },
            {
              "internalType": "string",
              "name": "location",
              "type": "string"
            },
            {
              "internalType": "address",
              "name": "owner",
              "type": "address"
            },
            {
              "internalType": "uint256",
              "name": "timestamp",
              "type": "uint256"
            }
          ],
          "internalType": "struct Radiotrace.Source",
          "name": "",
          "type": "tuple"
        }
      ],
      "stateMutability": "view",
      "type": "function"
    },
    {
      "inputs": [
        {
          "internalType": "address",
          "name": "_user",
          "type": "address"
        }
      ],
      "name": "getSourcesByUser",
      "outputs": [
        {
          "components": [
            {
              "internalType": "string",
              "name": "id",
              "type": "string"
            },
            {
              "internalType": "uint256",
              "name": "activity",
              "type": "uint256"
            },
            {
              "internalType": "string",
              "name": "location",
              "type": "string"
            },
            {
              "internalType": "address",
              "name": "owner",
              "type": "address"
            },
            {
              "internalType": "uint256",
              "name": "timestamp",
              "type": "uint256"
            }
          ],
          "internalType": "struct Radiotrace.Source[]",
          "name": "",
          "type": "tuple[]"
        }
      ],
      "stateMutability": "view",
      "type": "function"
    },
    {
      "inputs": [
        {
          "internalType": "address",
          "name": "_user",
          "type": "address"
        }
      ],
      "name": "getUserSourceCount",
      "outputs": [
        {
          "internalType": "uint256",
          "name": "",
          "type": "uint256"
        }
      ],
      "stateMutability": "view",
      "type": "function"
    },
    {
      "inputs": [
        {
          "internalType": "address",
          "name": "",
          "type": "address"
        }
      ],
      "name": "manufacturers",
      "outputs": [
        {
          "internalType": "bool",
          "name": "",
          "type": "bool"
        }
      ],
      "stateMutability": "view",
      "type": "function"
    },
    {
      "inputs": [
        {
          "internalType": "address",
          "name": "",
          "type": "address"
        }
      ],
      "name": "observers",
      "outputs": [
        {
          "internalType": "bool",
          "name": "",
          "type": "bool"
        }
      ],
      "stateMutability": "view",
      "type": "function"
    },
    {
      "inputs": [
        {
          "internalType": "uint256",
          "name": "",
          "type": "uint256"
        }
      ],
      "name": "sourceIds",
      "outputs": [
        {
          "internalType": "string",
          "name": "",
          "type": "string"
        }
      ],
      "stateMutability": "view",
      "type": "function"
    },
    {
      "inputs": [
        {
          "internalType": "string",
          "name": "",
          "type": "string"
        }
      ],
      "name": "sources",
      "outputs": [
        {
          "internalType": "string",
          "name": "id",
          "type": "string"
        },
        {
          "internalType": "uint256",
          "name": "activity",
          "type": "uint256"
        },
        {
          "internalType": "string",
          "name": "location",
          "type": "string"
        },
        {
          "internalType": "address",
          "name": "owner",
          "type": "address"
        },
        {
          "internalType": "uint256",
          "name": "timestamp",
          "type": "uint256"
        }
      ],
      "stateMutability": "view",
      "type": "function"
    },
    {
      "inputs": [
        {
          "internalType": "uint256",
          "name": "",
          "type": "uint256"
        }
      ],
      "name": "transactions",
      "outputs": [
        {
          "internalType": "string",
          "name": "sourceId",
          "type": "string"
        },
        {
          "internalType": "address",
          "name": "from",
          "type": "address"
        },
        {
          "internalType": "address",
          "name": "to",
          "type": "address"
        },
        {
          "internalType": "uint256",
          "name": "timestamp",
          "type": "uint256"
        },
        {
          "internalType": "string",
          "name": "action",
          "type": "string"
        }
      ],
      "stateMutability": "view",
      "type": "function"
    },
    {
      "inputs": [
        {
          "internalType": "string",
          "name": "_id",
          "type": "string"
        },
        {
          "internalType": "address",
          "name": "newOwner",
          "type": "address"
        }
      ],
      "name": "transferSource",
      "outputs": [],
      "stateMutability": "nonpayable",
      "type": "function"
    },
    {
      "inputs": [
        {
          "internalType": "string",
          "name": "_id",
          "type": "string"
        },
        {
          "internalType": "address",
          "name": "newOwner",
          "type": "address"
        }
      ],
      "name": "transferToAnotherUser",
      "outputs": [],
      "stateMutability": "nonpayable",
      "type": "function"
    },
    {
      "inputs": [
        {
          "internalType": "string",
          "name": "_id",
          "type": "string"
        },
        {
          "internalType": "uint256",
          "name": "_activity",
          "type": "uint256"
        }
      ],
      "name": "updateActivity",
      "outputs": [],
      "stateMutability": "nonpayable",
      "type": "function"
    },
    {
      "inputs": [
        {
          "internalType": "string",
          "name": "_id",
          "type": "string"
        },
        {
          "internalType": "string",
          "name": "_location",
          "type": "string"
        }
      ],
      "name": "updateLocation",
      "outputs": [],
      "stateMutability": "nonpayable",
      "type": "function"
    },
    {
      "inputs": [
        {
          "internalType": "address",
          "name": "",
          "type": "address"
        }
      ],
      "name": "userSourceCount",
      "outputs": [
        {
          "internalType": "uint256",
          "name": "",
          "type": "uint256"
        }
      ],
      "stateMutability": "view",
      "type": "function"
    },
    {
      "inputs": [
        {
          "internalType": "address",
          "name": "",
          "type": "address"
        }
      ],
      "name": "users",
      "outputs": [
        {
          "internalType": "bool",
          "name": "",
          "type": "bool"
        }
      ],
      "stateMutability": "view",
      "type": "function"
    }
  ],
  "bytecode": "0x608060405234801561001057600080fd5b5033600760006101000a81548173ffffffffffffffffffffffffffffffffffffffff021916908373ffffffffffffffffffffffffffffffffffffffff160217905550613ea4806100616000396000f3fe608060405234801561001057600080fd5b50600436106101425760003560e01c806394f15705116100b8578063c9cf6e791161007c578063c9cf6e79146103b1578063dd9f2d56146103e5578063f1fc845814610401578063f6ddac7414610431578063f851a4401461044d578063fb8ec9721461046b57610142565b806394f15705146102e35780639ace38c2146102ff578063a87430ba14610333578063a8d71d2f14610363578063be3b078c1461039357610142565b8063298abece1161010a578063298abece146101ff578063421b2d8b1461022f5780635f8a5afa1461024b5780636b5eb09c146102675780636d34c28b146102975780636d6e3839146102c757610142565b80630147fb7d1461014757806303ab06a71461017757806319367e31146101a7578063238bb88b146101c557806327506f53146101e1575b600080fd5b610161600480360381019061015c9190612cb3565b610487565b60405161016e9190612e52565b60405180910390f35b610191600480360381019061018c9190612ea0565b61064d565b60405161019e9190612edc565b60405180910390f35b6101af610696565b6040516101bc9190612fb9565b60405180910390f35b6101df60048036038101906101da9190613007565b61076f565b005b6101e9610a28565b6040516101f691906131a2565b60405180910390f35b61021960048036038101906102149190612ea0565b610c61565b6040516102269190613303565b60405180910390f35b61024960048036038101906102449190612ea0565b610fbb565b005b61026560048036038101906102609190612ea0565b6110a5565b005b610281600480360381019061027c9190612ea0565b6111c6565b60405161028e9190613340565b60405180910390f35b6102b160048036038101906102ac919061335b565b6111e6565b6040516102be91906133d2565b60405180910390f35b6102e160048036038101906102dc91906133f4565b611292565b005b6102fd60048036038101906102f8919061347f565b611745565b005b6103196004803603810190610314919061335b565b611bd6565b60405161032a9594939291906134ea565b60405180910390f35b61034d60048036038101906103489190612ea0565b611d6c565b60405161035a9190613340565b60405180910390f35b61037d60048036038101906103789190612ea0565b611d8c565b60405161038a9190613340565b60405180910390f35b61039b611dac565b6040516103a89190613303565b60405180910390f35b6103cb60048036038101906103c69190612cb3565b612023565b6040516103dc95949392919061354b565b60405180910390f35b6103ff60048036038101906103fa919061347f565b61219f565b005b61041b60048036038101906104169190612ea0565b6125d5565b6040516104289190612edc565b60405180910390f35b61044b600480360381019061044691906135ac565b6125ed565b005b6104556128af565b6040516104629190613624565b60405180910390f35b61048560048036038101906104809190612ea0565b6128d5565b005b61048f612b14565b60008260405161049f919061367b565b90815260200160405180910390206040518060a00160405290816000820180546104c8906136c1565b80601f01602080910402602001604051908101604052809291908181526020018280546104f4906136c1565b80156105415780601f1061051657610100808354040283529160200191610541565b820191906000526020600020905b81548152906001019060200180831161052457829003601f168201915b5050505050815260200160018201548152602001600282018054610564906136c1565b80601f0160208091040260200160405190810160405280929190818152602001828054610590906136c1565b80156105dd5780601f106105b2576101008083540402835291602001916105dd565b820191906000526020600020905b8154815290600101906020018083116105c057829003601f168201915b505050505081526020016003820160009054906101000a900473ffffffffffffffffffffffffffffffffffffffff1673ffffffffffffffffffffffffffffffffffffffff1673ffffffffffffffffffffffffffffffffffffffff1681526020016004820154815250509050919050565b6000600460008373ffffffffffffffffffffffffffffffffffffffff1673ffffffffffffffffffffffffffffffffffffffff168152602001908152602001600020549050919050565b60606005805480602002602001604051908101604052809291908181526020016000905b828210156107665783829060005260206000200180546106d9906136c1565b80601f0160208091040260200160405190810160405280929190818152602001828054610705906136c1565b80156107525780601f1061072757610100808354040283529160200191610752565b820191906000526020600020905b81548152906001019060200180831161073557829003601f168201915b5050505050815260200190600101906106ba565b50505050905090565b3373ffffffffffffffffffffffffffffffffffffffff16600083604051610796919061367b565b908152602001604051809103902060030160009054906101000a900473ffffffffffffffffffffffffffffffffffffffff1673ffffffffffffffffffffffffffffffffffffffff161461081e576040517f08c379a00000000000000000000000000000000000000000000000000000000081526004016108159061373e565b60405180910390fd5b600042905081600084604051610834919061367b565b9081526020016040518091039020600101819055508060008460405161085a919061367b565b90815260200160405180910390206004018190555060066040518060a001604052808581526020013373ffffffffffffffffffffffffffffffffffffffff1681526020013373ffffffffffffffffffffffffffffffffffffffff1681526020018381526020016040518060400160405280601081526020017f757064617465645f61637469766974790000000000000000000000000000000081525081525090806001815401808255809150506001900390600052602060002090600502016000909190919091506000820151816000019081610937919061390a565b5060208201518160010160006101000a81548173ffffffffffffffffffffffffffffffffffffffff021916908373ffffffffffffffffffffffffffffffffffffffff16021790555060408201518160020160006101000a81548173ffffffffffffffffffffffffffffffffffffffff021916908373ffffffffffffffffffffffffffffffffffffffff1602179055506060820151816003015560808201518160040190816109e5919061390a565b5050507f050be710aa5029d1b2870bf25a452cde73ed18d160921e8e68b6d8f9df37a4ee838383604051610a1b939291906139dc565b60405180910390a1505050565b60606006805480602002602001604051908101604052809291908181526020016000905b82821015610c5857838290600052602060002090600502016040518060a0016040529081600082018054610a7f906136c1565b80601f0160208091040260200160405190810160405280929190818152602001828054610aab906136c1565b8015610af85780601f10610acd57610100808354040283529160200191610af8565b820191906000526020600020905b815481529060010190602001808311610adb57829003601f168201915b505050505081526020016001820160009054906101000a900473ffffffffffffffffffffffffffffffffffffffff1673ffffffffffffffffffffffffffffffffffffffff1673ffffffffffffffffffffffffffffffffffffffff1681526020016002820160009054906101000a900473ffffffffffffffffffffffffffffffffffffffff1673ffffffffffffffffffffffffffffffffffffffff1673ffffffffffffffffffffffffffffffffffffffff16815260200160038201548152602001600482018054610bc7906136c1565b80601f0160208091040260200160405190810160405280929190818152602001828054610bf3906136c1565b8015610c405780601f10610c1557610100808354040283529160200191610c40565b820191906000526020600020905b815481529060010190602001808311610c2357829003601f168201915b50505050508152505081526020019060010190610a4c565b50505050905090565b60606000600460008473ffffffffffffffffffffffffffffffffffffffff1673ffffffffffffffffffffffffffffffffffffffff16815260200190815260200160002054905060008167ffffffffffffffff811115610cc357610cc2612b88565b5b604051908082528060200260200182016040528015610cfc57816020015b610ce9612b14565b815260200190600190039081610ce15790505b5090506000805b600580549050811015610faf578573ffffffffffffffffffffffffffffffffffffffff16600060058381548110610d3d57610d3c613a1a565b5b90600052602060002001604051610d549190613acc565b908152602001604051809103902060030160009054906101000a900473ffffffffffffffffffffffffffffffffffffffff1673ffffffffffffffffffffffffffffffffffffffff1603610fa257600060058281548110610db757610db6613a1a565b5b90600052602060002001604051610dce9190613acc565b90815260200160405180910390206040518060a0016040529081600082018054610df7906136c1565b80601f0160208091040260200160405190810160405280929190818152602001828054610e23906136c1565b8015610e705780601f10610e4557610100808354040283529160200191610e70565b820191906000526020600020905b815481529060010190602001808311610e5357829003601f168201915b5050505050815260200160018201548152602001600282018054610e93906136c1565b80601f0160208091040260200160405190810160405280929190818152602001828054610ebf906136c1565b8015610f0c5780601f10610ee157610100808354040283529160200191610f0c565b820191906000526020600020905b815481529060010190602001808311610eef57829003601f168201915b505050505081526020016003820160009054906101000a900473ffffffffffffffffffffffffffffffffffffffff1673ffffffffffffffffffffffffffffffffffffffff1673ffffffffffffffffffffffffffffffffffffffff168152602001600482015481525050838381518110610f8857610f87613a1a565b5b60200260200101819052508180610f9e90613b12565b9250505b8080600101915050610d03565b50819350505050919050565b6001600260008373ffffffffffffffffffffffffffffffffffffffff1673ffffffffffffffffffffffffffffffffffffffff16815260200190815260200160002060006101000a81548160ff0219169083151502179055506000600360008373ffffffffffffffffffffffffffffffffffffffff1673ffffffffffffffffffffffffffffffffffffffff16815260200190815260200160002060006101000a81548160ff0219169083151502179055507f19ef9a4877199f89440a26acb26895ec02ed86f2df1aeaa90dc18041b892f71f8160405161109a9190613624565b60405180910390a150565b600760009054906101000a900473ffffffffffffffffffffffffffffffffffffffff1673ffffffffffffffffffffffffffffffffffffffff163373ffffffffffffffffffffffffffffffffffffffff1614611135576040517f08c379a000000000000000000000000000000000000000000000000000000000815260040161112c90613ba6565b60405180910390fd5b60018060008373ffffffffffffffffffffffffffffffffffffffff1673ffffffffffffffffffffffffffffffffffffffff16815260200190815260200160002060006101000a81548160ff0219169083151502179055507f561138658ca49a8540dc70dcfe64c9026c1c5b9344642242dd6562970f9c1278816040516111bb9190613624565b60405180910390a150565b60016020528060005260406000206000915054906101000a900460ff1681565b600581815481106111f657600080fd5b906000526020600020016000915090508054611211906136c1565b80601f016020809104026020016040519081016040528092919081815260200182805461123d906136c1565b801561128a5780601f1061125f5761010080835404028352916020019161128a565b820191906000526020600020905b81548152906001019060200180831161126d57829003601f168201915b505050505081565b600160003373ffffffffffffffffffffffffffffffffffffffff1673ffffffffffffffffffffffffffffffffffffffff16815260200190815260200160002060009054906101000a900460ff1661131e576040517f08c379a000000000000000000000000000000000000000000000000000000000815260040161131590613c12565b60405180910390fd5b600073ffffffffffffffffffffffffffffffffffffffff16600084604051611346919061367b565b908152602001604051809103902060030160009054906101000a900473ffffffffffffffffffffffffffffffffffffffff1673ffffffffffffffffffffffffffffffffffffffff16146113ce576040517f08c379a00000000000000000000000000000000000000000000000000000000081526004016113c590613c7e565b60405180910390fd5b60004290506040518060a001604052808581526020018481526020018381526020013373ffffffffffffffffffffffffffffffffffffffff16815260200182815250600085604051611420919061367b565b90815260200160405180910390206000820151816000019081611443919061390a565b50602082015181600101556040820151816002019081611463919061390a565b5060608201518160030160006101000a81548173ffffffffffffffffffffffffffffffffffffffff021916908373ffffffffffffffffffffffffffffffffffffffff16021790555060808201518160040155905050600460003373ffffffffffffffffffffffffffffffffffffffff1673ffffffffffffffffffffffffffffffffffffffff168152602001908152602001600020600081548092919061150890613b12565b9190505550600584908060018154018082558091505060019003906000526020600020016000909190919091509081611541919061390a565b5061154b33610fbb565b60066040518060a00160405280868152602001600073ffffffffffffffffffffffffffffffffffffffff1681526020013373ffffffffffffffffffffffffffffffffffffffff1681526020018381526020016040518060400160405280600581526020017f616464656400000000000000000000000000000000000000000000000000000081525081525090806001815401808255809150506001900390600052602060002090600502016000909190919091506000820151816000019081611614919061390a565b5060208201518160010160006101000a81548173ffffffffffffffffffffffffffffffffffffffff021916908373ffffffffffffffffffffffffffffffffffffffff16021790555060408201518160020160006101000a81548173ffffffffffffffffffffffffffffffffffffffff021916908373ffffffffffffffffffffffffffffffffffffffff1602179055506060820151816003015560808201518160040190816116c2919061390a565b5050507fe6151686c094ae17717447d9aa46f6b3a0358a75f9dc4c560aa660e6619203408433836040516116f893929190613c9e565b60405180910390a17fedfa14e8d77997c7977387a9c003c37dbfec8506551790e72e9cef70e66706e7848484338560405161173795949392919061354b565b60405180910390a150505050565b3373ffffffffffffffffffffffffffffffffffffffff1660008360405161176c919061367b565b908152602001604051809103902060030160009054906101000a900473ffffffffffffffffffffffffffffffffffffffff1673ffffffffffffffffffffffffffffffffffffffff16146117f4576040517f08c379a00000000000000000000000000000000000000000000000000000000081526004016117eb90613d28565b60405180910390fd5b60008083604051611805919061367b565b908152602001604051809103902060030160009054906101000a900473ffffffffffffffffffffffffffffffffffffffff16905060004290508260008560405161184f919061367b565b908152602001604051809103902060030160006101000a81548173ffffffffffffffffffffffffffffffffffffffff021916908373ffffffffffffffffffffffffffffffffffffffff160217905550806000856040516118af919061367b565b908152602001604051809103902060040181905550600460008373ffffffffffffffffffffffffffffffffffffffff1673ffffffffffffffffffffffffffffffffffffffff168152602001908152602001600020600081548092919061191490613d48565b9190505550600460008473ffffffffffffffffffffffffffffffffffffffff1673ffffffffffffffffffffffffffffffffffffffff168152602001908152602001600020600081548092919061196990613b12565b91905055506000600460008473ffffffffffffffffffffffffffffffffffffffff1673ffffffffffffffffffffffffffffffffffffffff16815260200190815260200160002054036119bf576119be826129f3565b5b600260008473ffffffffffffffffffffffffffffffffffffffff1673ffffffffffffffffffffffffffffffffffffffff16815260200190815260200160002060009054906101000a900460ff16611a1a57611a1983610fbb565b5b60066040518060a001604052808681526020018473ffffffffffffffffffffffffffffffffffffffff1681526020018573ffffffffffffffffffffffffffffffffffffffff1681526020018381526020016040518060400160405280600b81526020017f7472616e7366657272656400000000000000000000000000000000000000000081525081525090806001815401808255809150506001900390600052602060002090600502016000909190919091506000820151816000019081611ae2919061390a565b5060208201518160010160006101000a81548173ffffffffffffffffffffffffffffffffffffffff021916908373ffffffffffffffffffffffffffffffffffffffff16021790555060408201518160020160006101000a81548173ffffffffffffffffffffffffffffffffffffffff021916908373ffffffffffffffffffffffffffffffffffffffff160217905550606082015181600301556080820151816004019081611b90919061390a565b5050507f405432817e324acb872466398d3d34916d87782a1e8694b617ce8928ec36791684338584604051611bc89493929190613d71565b60405180910390a150505050565b60068181548110611be657600080fd5b9060005260206000209060050201600091509050806000018054611c09906136c1565b80601f0160208091040260200160405190810160405280929190818152602001828054611c35906136c1565b8015611c825780601f10611c5757610100808354040283529160200191611c82565b820191906000526020600020905b815481529060010190602001808311611c6557829003601f168201915b5050505050908060010160009054906101000a900473ffffffffffffffffffffffffffffffffffffffff16908060020160009054906101000a900473ffffffffffffffffffffffffffffffffffffffff1690806003015490806004018054611ce9906136c1565b80601f0160208091040260200160405190810160405280929190818152602001828054611d15906136c1565b8015611d625780601f10611d3757610100808354040283529160200191611d62565b820191906000526020600020905b815481529060010190602001808311611d4557829003601f168201915b5050505050905085565b60026020528060005260406000206000915054906101000a900460ff1681565b60036020528060005260406000206000915054906101000a900460ff1681565b60606000600580549050905060008167ffffffffffffffff811115611dd457611dd3612b88565b5b604051908082528060200260200182016040528015611e0d57816020015b611dfa612b14565b815260200190600190039081611df25790505b50905060005b8281101561201a57600060058281548110611e3157611e30613a1a565b5b90600052602060002001604051611e489190613acc565b90815260200160405180910390206040518060a0016040529081600082018054611e71906136c1565b80601f0160208091040260200160405190810160405280929190818152602001828054611e9d906136c1565b8015611eea5780601f10611ebf57610100808354040283529160200191611eea565b820191906000526020600020905b815481529060010190602001808311611ecd57829003601f168201915b5050505050815260200160018201548152602001600282018054611f0d906136c1565b80601f0160208091040260200160405190810160405280929190818152602001828054611f39906136c1565b8015611f865780601f10611f5b57610100808354040283529160200191611f86565b820191906000526020600020905b815481529060010190602001808311611f6957829003601f168201915b505050505081526020016003820160009054906101000a900473ffffffffffffffffffffffffffffffffffffffff1673ffffffffffffffffffffffffffffffffffffffff1673ffffffffffffffffffffffffffffffffffffffff16815260200160048201548152505082828151811061200257612001613a1a565b5b60200260200101819052508080600101915050611e13565b50809250505090565b60008180516020810182018051848252602083016020850120818352809550505050505060009150905080600001805461205c906136c1565b80601f0160208091040260200160405190810160405280929190818152602001828054612088906136c1565b80156120d55780601f106120aa576101008083540402835291602001916120d5565b820191906000526020600020905b8154815290600101906020018083116120b857829003601f168201915b5050505050908060010154908060020180546120f0906136c1565b80601f016020809104026020016040519081016040528092919081815260200182805461211c906136c1565b80156121695780601f1061213e57610100808354040283529160200191612169565b820191906000526020600020905b81548152906001019060200180831161214c57829003601f168201915b5050505050908060030160009054906101000a900473ffffffffffffffffffffffffffffffffffffffff16908060040154905085565b3373ffffffffffffffffffffffffffffffffffffffff166000836040516121c6919061367b565b908152602001604051809103902060030160009054906101000a900473ffffffffffffffffffffffffffffffffffffffff1673ffffffffffffffffffffffffffffffffffffffff161461224e576040517f08c379a000000000000000000000000000000000000000000000000000000000815260040161224590613d28565b60405180910390fd5b6000808360405161225f919061367b565b908152602001604051809103902060030160009054906101000a900473ffffffffffffffffffffffffffffffffffffffff1690506000429050826000856040516122a9919061367b565b908152602001604051809103902060030160006101000a81548173ffffffffffffffffffffffffffffffffffffffff021916908373ffffffffffffffffffffffffffffffffffffffff16021790555080600085604051612309919061367b565b908152602001604051809103902060040181905550600460008373ffffffffffffffffffffffffffffffffffffffff1673ffffffffffffffffffffffffffffffffffffffff168152602001908152602001600020600081548092919061236e90613d48565b9190505550600460008473ffffffffffffffffffffffffffffffffffffffff1673ffffffffffffffffffffffffffffffffffffffff16815260200190815260200160002060008154809291906123c390613b12565b91905055506000600460008473ffffffffffffffffffffffffffffffffffffffff1673ffffffffffffffffffffffffffffffffffffffff168152602001908152602001600020540361241957612418826129f3565b5b60066040518060a001604052808681526020018473ffffffffffffffffffffffffffffffffffffffff1681526020018573ffffffffffffffffffffffffffffffffffffffff1681526020018381526020016040518060400160405280600b81526020017f7472616e73666572726564000000000000000000000000000000000000000000815250815250908060018154018082558091505060019003906000526020600020906005020160009091909190915060008201518160000190816124e1919061390a565b5060208201518160010160006101000a81548173ffffffffffffffffffffffffffffffffffffffff021916908373ffffffffffffffffffffffffffffffffffffffff16021790555060408201518160020160006101000a81548173ffffffffffffffffffffffffffffffffffffffff021916908373ffffffffffffffffffffffffffffffffffffffff16021790555060608201518160030155608082015181600401908161258f919061390a565b5050507f405432817e324acb872466398d3d34916d87782a1e8694b617ce8928ec367916843385846040516125c79493929190613d71565b60405180910390a150505050565b60046020528060005260406000206000915090505481565b3373ffffffffffffffffffffffffffffffffffffffff16600083604051612614919061367b565b908152602001604051809103902060030160009054906101000a900473ffffffffffffffffffffffffffffffffffffffff1673ffffffffffffffffffffffffffffffffffffffff161461269c576040517f08c379a000000000000000000000000000000000000000000000000000000000815260040161269390613e09565b60405180910390fd5b6000429050816000846040516126b2919061367b565b908152602001604051809103902060020190816126cf919061390a565b50806000846040516126e1919061367b565b90815260200160405180910390206004018190555060066040518060a001604052808581526020013373ffffffffffffffffffffffffffffffffffffffff1681526020013373ffffffffffffffffffffffffffffffffffffffff1681526020018381526020016040518060400160405280601081526020017f757064617465645f6c6f636174696f6e00000000000000000000000000000000815250815250908060018154018082558091505060019003906000526020600020906005020160009091909190915060008201518160000190816127be919061390a565b5060208201518160010160006101000a81548173ffffffffffffffffffffffffffffffffffffffff021916908373ffffffffffffffffffffffffffffffffffffffff16021790555060408201518160020160006101000a81548173ffffffffffffffffffffffffffffffffffffffff021916908373ffffffffffffffffffffffffffffffffffffffff16021790555060608201518160030155608082015181600401908161286c919061390a565b5050507fe046533fc91597b510779256ad0ca2452c9ca2895ac9ce2515439c7f5d6820f48383836040516128a293929190613e29565b60405180910390a1505050565b600760009054906101000a900473ffffffffffffffffffffffffffffffffffffffff1681565b600160003373ffffffffffffffffffffffffffffffffffffffff1673ffffffffffffffffffffffffffffffffffffffff16815260200190815260200160002060009054906101000a900460ff16612961576040517f08c379a000000000000000000000000000000000000000000000000000000000815260040161295890613c12565b60405180910390fd5b6001600360008373ffffffffffffffffffffffffffffffffffffffff1673ffffffffffffffffffffffffffffffffffffffff16815260200190815260200160002060006101000a81548160ff0219169083151502179055507f9e7e83ca24653c9e3f411044ebe8b4556a45c28aea2d89b408c19cb1c57fc05a816040516129e89190613624565b60405180910390a150565b6000600260008373ffffffffffffffffffffffffffffffffffffffff1673ffffffffffffffffffffffffffffffffffffffff16815260200190815260200160002060006101000a81548160ff0219169083151502179055506001600360008373ffffffffffffffffffffffffffffffffffffffff1673ffffffffffffffffffffffffffffffffffffffff16815260200190815260200160002060006101000a81548160ff0219169083151502179055507fe9dce8c992623ce791725b21e857e33248d1f190a25b5168313420eebdaae99d81604051612ad29190613624565b60405180910390a17f9e7e83ca24653c9e3f411044ebe8b4556a45c28aea2d89b408c19cb1c57fc05a81604051612b099190613624565b60405180910390a150565b6040518060a00160405280606081526020016000815260200160608152602001600073ffffffffffffffffffffffffffffffffffffffff168152602001600081525090565b6000604051905090565b600080fd5b600080fd5b600080fd5b600080fd5b6000601f19601f8301169050919050565b7f4e487b7100000000000000000000000000000000000000000000000000000000600052604160045260246000fd5b612bc082612b77565b810181811067ffffffffffffffff82111715612bdf57612bde612b88565b5b80604052505050565b6000612bf2612b59565b9050612bfe8282612bb7565b919050565b600067ffffffffffffffff821115612c1e57612c1d612b88565b5b612c2782612b77565b9050602081019050919050565b82818337600083830152505050565b6000612c56612c5184612c03565b612be8565b905082815260208101848484011115612c7257612c71612b72565b5b612c7d848285612c34565b509392505050565b600082601f830112612c9a57612c99612b6d565b5b8135612caa848260208601612c43565b91505092915050565b600060208284031215612cc957612cc8612b63565b5b600082013567ffffffffffffffff811115612ce757612ce6612b68565b5b612cf384828501612c85565b91505092915050565b600081519050919050565b600082825260208201905092915050565b60005b83811015612d36578082015181840152602081019050612d1b565b60008484015250505050565b6000612d4d82612cfc565b612d578185612d07565b9350612d67818560208601612d18565b612d7081612b77565b840191505092915050565b6000819050919050565b612d8e81612d7b565b82525050565b600073ffffffffffffffffffffffffffffffffffffffff82169050919050565b6000612dbf82612d94565b9050919050565b612dcf81612db4565b82525050565b600060a0830160008301518482036000860152612df28282612d42565b9150506020830151612e076020860182612d85565b5060408301518482036040860152612e1f8282612d42565b9150506060830151612e346060860182612dc6565b506080830151612e476080860182612d85565b508091505092915050565b60006020820190508181036000830152612e6c8184612dd5565b905092915050565b612e7d81612db4565b8114612e8857600080fd5b50565b600081359050612e9a81612e74565b92915050565b600060208284031215612eb657612eb5612b63565b5b6000612ec484828501612e8b565b91505092915050565b612ed681612d7b565b82525050565b6000602082019050612ef16000830184612ecd565b92915050565b600081519050919050565b600082825260208201905092915050565b6000819050602082019050919050565b6000612f2f8383612d42565b905092915050565b6000602082019050919050565b6000612f4f82612ef7565b612f598185612f02565b935083602082028501612f6b85612f13565b8060005b85811015612fa75784840389528151612f888582612f23565b9450612f9383612f37565b925060208a01995050600181019050612f6f565b50829750879550505050505092915050565b60006020820190508181036000830152612fd38184612f44565b905092915050565b612fe481612d7b565b8114612fef57600080fd5b50565b60008135905061300181612fdb565b92915050565b6000806040838503121561301e5761301d612b63565b5b600083013567ffffffffffffffff81111561303c5761303b612b68565b5b61304885828601612c85565b925050602061305985828601612ff2565b9150509250929050565b600081519050919050565b600082825260208201905092915050565b6000819050602082019050919050565b600060a08301600083015184820360008601526130ac8282612d42565b91505060208301516130c16020860182612dc6565b5060408301516130d46040860182612dc6565b5060608301516130e76060860182612d85565b50608083015184820360808601526130ff8282612d42565b9150508091505092915050565b6000613118838361308f565b905092915050565b6000602082019050919050565b600061313882613063565b613142818561306e565b9350836020820285016131548561307f565b8060005b858110156131905784840389528151613171858261310c565b945061317c83613120565b925060208a01995050600181019050613158565b50829750879550505050505092915050565b600060208201905081810360008301526131bc818461312d565b905092915050565b600081519050919050565b600082825260208201905092915050565b6000819050602082019050919050565b600060a083016000830151848203600086015261320d8282612d42565b91505060208301516132226020860182612d85565b506040830151848203604086015261323a8282612d42565b915050606083015161324f6060860182612dc6565b5060808301516132626080860182612d85565b508091505092915050565b600061327983836131f0565b905092915050565b6000602082019050919050565b6000613299826131c4565b6132a381856131cf565b9350836020820285016132b5856131e0565b8060005b858110156132f157848403895281516132d2858261326d565b94506132dd83613281565b925060208a019950506001810190506132b9565b50829750879550505050505092915050565b6000602082019050818103600083015261331d818461328e565b905092915050565b60008115159050919050565b61333a81613325565b82525050565b60006020820190506133556000830184613331565b92915050565b60006020828403121561337157613370612b63565b5b600061337f84828501612ff2565b91505092915050565b600082825260208201905092915050565b60006133a482612cfc565b6133ae8185613388565b93506133be818560208601612d18565b6133c781612b77565b840191505092915050565b600060208201905081810360008301526133ec8184613399565b905092915050565b60008060006060848603121561340d5761340c612b63565b5b600084013567ffffffffffffffff81111561342b5761342a612b68565b5b61343786828701612c85565b935050602061344886828701612ff2565b925050604084013567ffffffffffffffff81111561346957613468612b68565b5b61347586828701612c85565b9150509250925092565b6000806040838503121561349657613495612b63565b5b600083013567ffffffffffffffff8111156134b4576134b3612b68565b5b6134c085828601612c85565b92505060206134d185828601612e8b565b9150509250929050565b6134e481612db4565b82525050565b600060a08201905081810360008301526135048188613399565b905061351360208301876134db565b61352060408301866134db565b61352d6060830185612ecd565b818103608083015261353f8184613399565b90509695505050505050565b600060a08201905081810360008301526135658188613399565b90506135746020830187612ecd565b81810360408301526135868186613399565b905061359560608301856134db565b6135a26080830184612ecd565b9695505050505050565b600080604083850312156135c3576135c2612b63565b5b600083013567ffffffffffffffff8111156135e1576135e0612b68565b5b6135ed85828601612c85565b925050602083013567ffffffffffffffff81111561360e5761360d612b68565b5b61361a85828601612c85565b9150509250929050565b600060208201905061363960008301846134db565b92915050565b600081905092915050565b600061365582612cfc565b61365f818561363f565b935061366f818560208601612d18565b80840191505092915050565b6000613687828461364a565b915081905092915050565b7f4e487b7100000000000000000000000000000000000000000000000000000000600052602260045260246000fd5b600060028204905060018216806136d957607f821691505b6020821081036136ec576136eb613692565b5b50919050565b7f4f6e6c79206f776e65722063616e207570646174652061637469766974790000600082015250565b6000613728601e83613388565b9150613733826136f2565b602082019050919050565b600060208201905081810360008301526137578161371b565b9050919050565b60008190508160005260206000209050919050565b60006020601f8301049050919050565b600082821b905092915050565b6000600883026137c07fffffffffffffffffffffffffffffffffffffffffffffffffffffffffffffffff82613783565b6137ca8683613783565b95508019841693508086168417925050509392505050565b6000819050919050565b60006138076138026137fd84612d7b565b6137e2565b612d7b565b9050919050565b6000819050919050565b613821836137ec565b61383561382d8261380e565b848454613790565b825550505050565b600090565b61384a61383d565b613855818484613818565b505050565b5b818110156138795761386e600082613842565b60018101905061385b565b5050565b601f8211156138be5761388f8161375e565b61389884613773565b810160208510156138a7578190505b6138bb6138b385613773565b83018261385a565b50505b505050565b600082821c905092915050565b60006138e1600019846008026138c3565b1980831691505092915050565b60006138fa83836138d0565b9150826002028217905092915050565b61391382612cfc565b67ffffffffffffffff81111561392c5761392b612b88565b5b61393682546136c1565b61394182828561387d565b600060209050601f8311600181146139745760008415613962578287015190505b61396c85826138ee565b8655506139d4565b601f1984166139828661375e565b60005b828110156139aa57848901518255600182019150602085019450602081019050613985565b868310156139c757848901516139c3601f8916826138d0565b8355505b6001600288020188555050505b505050505050565b600060608201905081810360008301526139f68186613399565b9050613a056020830185612ecd565b613a126040830184612ecd565b949350505050565b7f4e487b7100000000000000000000000000000000000000000000000000000000600052603260045260246000fd5b60008154613a56816136c1565b613a60818661363f565b94506001821660008114613a7b5760018114613a9057613ac3565b60ff1983168652811515820286019350613ac3565b613a998561375e565b60005b83811015613abb57815481890152600182019150602081019050613a9c565b838801955050505b50505092915050565b6000613ad88284613a49565b915081905092915050565b7f4e487b7100000000000000000000000000000000000000000000000000000000600052601160045260246000fd5b6000613b1d82612d7b565b91507fffffffffffffffffffffffffffffffffffffffffffffffffffffffffffffffff8203613b4f57613b4e613ae3565b5b600182019050919050565b7f4e6f7420616e2061646d696e0000000000000000000000000000000000000000600082015250565b6000613b90600c83613388565b9150613b9b82613b5a565b602082019050919050565b60006020820190508181036000830152613bbf81613b83565b9050919050565b7f4e6f742061206d616e7566616374757265720000000000000000000000000000600082015250565b6000613bfc601283613388565b9150613c0782613bc6565b602082019050919050565b60006020820190508181036000830152613c2b81613bef565b9050919050565b7f536f7572636520616c7265616479206578697374730000000000000000000000600082015250565b6000613c68601583613388565b9150613c7382613c32565b602082019050919050565b60006020820190508181036000830152613c9781613c5b565b9050919050565b60006060820190508181036000830152613cb88186613399565b9050613cc760208301856134db565b613cd46040830184612ecd565b949350505050565b7f4f6e6c79206f776e65722063616e207472616e7366657220736f757263650000600082015250565b6000613d12601e83613388565b9150613d1d82613cdc565b602082019050919050565b60006020820190508181036000830152613d4181613d05565b9050919050565b6000613d5382612d7b565b915060008203613d6657613d65613ae3565b5b600182039050919050565b60006080820190508181036000830152613d8b8187613399565b9050613d9a60208301866134db565b613da760408301856134db565b613db46060830184612ecd565b95945050505050565b7f4f6e6c79206f776e65722063616e20757064617465206c6f636174696f6e0000600082015250565b6000613df3601e83613388565b9150613dfe82613dbd565b602082019050919050565b60006020820190508181036000830152613e2281613de6565b9050919050565b60006060820190508181036000830152613e438186613399565b90508181036020830152613e578185613399565b9050613e666040830184612ecd565b94935050505056fea2646970667358221220c326f93bdb8f83c86ee519e61529cf1078701f06492146f09b69abc31fceb13a64736f6c63430008180033",
  "linkReferences": {},
  "deployedLinkReferences": {}
}